:020000040800F2
:1000000000000320293B0008391F00083F1F00089B
:10001000451F00084B1F0008511F0008000000008A
:10002000000000000000000000000000571F000852
:10003000651F000800000000731F0008811F0008F2
:10004000793B0008793B0008793B0008793B0008C0
:10005000793B0008793B0008793B0008793B0008B0
:10006000793B0008793B0008793B0008793B0008A0
:10007000793B0008793B0008793B0008793B000890
:10008000793B0008793B0008793B0008793B000880
:10009000793B0008793B0008793B0008793B000870
:1000A000793B0008793B0008793B0008793B000860
:1000B000793B0008793B0008793B0008793B000850
:1000C000793B0008793B0008793B0008793B000840
:1000D000793B0008793B0008793B0008793B000830
:1000E000793B0008793B0008793B0008793B000820
:1000F000793B0008793B0008793B0008793B000810
:10010000793B0008793B0008793B0008793B0008FF
:10011000793B0008793B0008793B0008793B0008EF
:10012000793B0008793B0008793B0008793B0008DF
:10013000793B0008793B0008793B0008793B0008CF
:10014000793B0008793B0008793B0008793B0008BF
:10015000793B0008793B0008793B0008793B0008AF
:10016000793B0008793B0008793B0008793B00089F
:10017000793B0008793B0008793B0008000000004B
:10018000793B0008793B0008793B0008793B00087F
:10019000793B0008793B0008793B0008793B00086F
:0C01A0000000000000000000793B000897
:1001B00010B5054C237833B9044B13B10448AFF3A1
:1001C00000800123237010BD780000200000000093
:1001D0009454000808B5034B1BB103490348AFF31F
:1001E000008008BD000000007C000020945400083E
:1001F00001F0FF01102A2BDB10F0070F08D010F8D8
:10020000013B013A8B422DD010F0070F42B3F6D1DB
:10021000F0B441EA012141EA014122F007047FF0F4
:1002200000070023F0E80256083C85EA010586EA4B
:10023000010685FA47F5A3FA87F586FA47F6A5FA87
:1002400087F68EB9EED1F0BC01F0FF0102F0070293
:1002500032B110F8013B013A83EA010313B1F8D13E
:100260000020704701387047002D06BF354603381F
:10027000073815F0010F07D1013015F4807F02BF58
:10028000013015F4C03F0130F0BC0138704700BFA9
:1002900081F0004102E000BF83F0004330B54FEA37
:1002A00041044FEA430594EA050F08BF90EA020FA4
:1002B0001FBF54EA000C55EA020C7FEA645C7FEA37
:1002C000655C00F0E2804FEA5454D4EB5555B8BF5A
:1002D0006D420CDD2C4480EA020281EA030382EACB
:1002E000000083EA010180EA020281EA0303362D5D
:1002F00088BF30BD11F0004F4FEA01314FF4801C30
:100300004CEA113102D0404261EB410113F0004F41
:100310004FEA03334CEA133302D0524263EB4303F8
:1003200094EA050F00F0A780A4F10104D5F1200E96
:100330000DDB02FA0EFC22FA05F2801841F10001F1
:1003400003FA0EF2801843FA05F359410EE0A5F1C5
:1003500020050EF1200E012A03FA0EFC28BF4CF0F6
:10036000020C43FA05F3C01851EBE37101F00045AC
:1003700007D54FF0000EDCF1000C7EEB00006EEBB9
:100380000101B1F5801F1BD3B1F5001F0CD3490843
:100390005FEA30004FEA3C0C04F101044FEA44529A
:1003A00012F5800F80F09A80BCF1004F08BF5FEA21
:1003B000500C50F1000041EB045141EA050130BD01
:1003C0005FEA4C0C404141EB0101013C28BFB1F513
:1003D000801FE9D291F0000F04BF01460020B1FA5E
:1003E00081F308BF2033A3F10B03B3F120020CDA31
:1003F0000C3208DD02F1140CC2F10C0201FA0CF00F
:1004000021FA02F10CE002F11402D8BFC2F1200C73
:1004100001FA02F120FA0CFCDCBF41EA0C01904029
:10042000E41AA2BF01EB0451294330BD6FEA040472
:100430001F3C1CDA0C340EDC04F11404C4F120025D
:1004400020FA04F001FA02F340EA030021FA04F36F
:1004500045EA030130BDC4F10C04C4F1200220FAC6
:1004600002F001FA04F340EA0300294630BD21FA04
:1004700004F0294630BD94F0000F83F4801306BFCA
:1004800081F480110134013D4EE77FEA645C18BFBE
:100490007FEA655C29D094EA050F08BF90EA020F55
:1004A00005D054EA000C04BF1946104630BD91EA4D
:1004B000030F1EBF0021002030BD5FEA545C05D150
:1004C0004000494128BF41F0004130BD14F580048F
:1004D0003CBF01F5801130BD01F0004545F0FE4103
:1004E00041F470014FF0000030BD7FEA645C1ABF38
:1004F000194610467FEA655C1CBF0B46024650EA6F
:10050000013406BF52EA033591EA030F41F400219A
:1005100030BD00BF90F0000F04BF0021704730B520
:100520004FF4806404F132044FF000054FF00001F5
:1005300050E700BF90F0000F04BF0021704730B5B6
:100540004FF4806404F1320410F0004548BF40428B
:100550004FF000013EE700BF42004FEAE2014FEAE0
:1005600031014FEA02701FBF12F07F4393F07F4FBB
:1005700081F06051704732F07F4208BF704793F0BE
:100580007F4F04BF41F40021704730B54FF46074D1
:1005900001F0004521F000411CE700BF50EA0102D4
:1005A00008BF704730B54FF000050AE050EA01027D
:1005B00008BF704730B511F0004502D5404261EBED
:1005C00041014FF4806404F132045FEA915C3FF42E
:1005D000D8AE4FF003025FEADC0C18BF03325FEACB
:1005E000DC0C18BF033202EBDC02C2F1200300FA7C
:1005F00003FC20FA02F001FA03FE40EA0E0021FAA1
:1006000002F11444BDE600BF70B54FF0FF0C4CF48E
:10061000E06C1CEA11541DBF1CEA135594EA0C0F40
:1006200095EA0C0F00F0DEF82C4481EA030621EA7B
:100630004C5123EA4C5350EA013518BF52EA0335B6
:1006400041F4801143F4801338D0A0FB02CE4FF068
:100650000005E1FB02E506F00042E0FB03E54FF098
:100660000006E1FB03569CF0000F18BF4EF0010E90
:10067000A4F1FF04B6F5007F64F5407404D25FEA8C
:100680004E0E6D4146EB060642EAC62141EA55513F
:100690004FEAC52040EA5E504FEACE2EB4F1FD0C81
:1006A00088BFBCF5E06F1ED8BEF1004F08BF5FEAFF
:1006B000500E50F1000041EB045170BD06F00046B1
:1006C00046EA010140EA020081EA0301B4EB5C045E
:1006D000C2BFD4EB0C0541EA045170BD41F4801156
:1006E0004FF0000E013C00F3AB8014F1360FDEBF7B
:1006F000002001F0004170BDC4F10004203C35DA57
:100700000C341BDC04F11404C4F1200500FA05F3D9
:1007100020FA04F001FA05F240EA020001F000427A
:1007200021F0004110EBD37021FA04F642EB0601F0
:100730005EEA430E08BF20EAD37070BDC4F10C041A
:10074000C4F1200500FA04F320FA05F001FA04F2DE
:1007500040EA020001F0004110EBD37041F10001CA
:100760005EEA430E08BF20EAD37070BDC4F12005D5
:1007700000FA05F24EEA020E20FA04F301FA05F23D
:1007800043EA020321FA04F001F0004121FA04F2E5
:1007900020EA020000EBD3705EEA430E08BF20EAB5
:1007A000D37070BD94F0000F0FD101F000464000EF
:1007B00041EB010111F4801F08BF013CF7D041EA71
:1007C000060195F0000F18BF704703F00046520075
:1007D00043EB030313F4801F08BF013DF7D043EA46
:1007E0000603704794EA0C0F0CEA135518BF95EAFC
:1007F0000C0F0CD050EA410618BF52EA4306D1D183
:1008000081EA030101F000414FF0000070BD50EAA1
:10081000410606BF1046194652EA430619D094EA2B
:100820000C0F02D150EA013613D195EA0C0F05D115
:1008300052EA03361CBF104619460AD181EA030169
:1008400001F0004141F0FE4141F470014FF0000021
:1008500070BD41F0FE4141F4780170BD70B54FF0BC
:10086000FF0C4CF4E06C1CEA11541DBF1CEA13553C
:1008700094EA0C0F95EA0C0F00F0A7F8A4EB05041E
:1008800081EA030E52EA03354FEA013100F0888015
:100890004FEA03334FF0805545EA131343EA1263DE
:1008A0004FEA022245EA111545EA10654FEA002693
:1008B0000EF000419D4208BF964244F1FD0404F54C
:1008C000407402D25B084FEA3202B61A65EB0305A8
:1008D0005B084FEA32024FF480104FF4002CB6EB65
:1008E000020E75EB030E22BFB61A754640EA0C00E5
:1008F0005B084FEA3202B6EB020E75EB030E22BF25
:10090000B61A754640EA5C005B084FEA3202B6EB65
:10091000020E75EB030E22BFB61A754640EA9C0024
:100920005B084FEA3202B6EB020E75EB030E22BFF4
:10093000B61A754640EADC0055EA060E18D04FEAB2
:10094000051545EA16754FEA06164FEAC30343EA52
:1009500052734FEAC2025FEA1C1CC0D111F4801F1F
:100960000BD141EA00014FF000004FF0004CB6E718
:1009700011F4801F04BF01430020B4F1FD0C88BFB7
:10098000BCF5E06F3FF6AFAEB5EB030C04BFB6EBC2
:10099000020C5FEA500C50F1000041EB045170BDB5
:1009A0000EF0004E4EEA113114EB5C04C2BFD4EBE2
:1009B0000C0541EA045170BD41F480114FF0000E66
:1009C000013C90E645EA060E8DE60CEA135594EAE2
:1009D0000C0F08BF95EA0C0F3FF43BAF94EA0C0FE5
:1009E0000AD150EA01347FF434AF95EA0C0F7FF45A
:1009F00025AF104619462CE795EA0C0F06D152EAAE
:100A000003353FF4FDAE1046194622E750EA410691
:100A100018BF52EA43067FF4C5AE50EA41047FF4A2
:100A20000DAF52EA43057FF4EBAE12E74FF0FF3C07
:100A300006E000BF4FF0010C02E000BF4FF0010CD8
:100A40004DF804CD4FEA410C7FEA6C5C4FEA430C51
:100A500018BF7FEA6C5C1BD001B050EA410C0CBFA0
:100A600052EA430C91EA030F02BF90EA020F002002
:100A7000704710F1000F91EA030F58BF994208BF69
:100A800090422CBFD8176FEAE37040F00100704726
:100A90004FEA410C7FEA6C5C02D150EA013C07D17D
:100AA0004FEA430C7FEA6C5CD6D152EA033CD3D0C8
:100AB0005DF8040B704700BF8446104662468C46C2
:100AC0001946634600E000BF01B5FFF7B7FF0028F5
:100AD00048BF10F1000F01BD4DF808EDFFF7F4FF1E
:100AE0000CBF012000205DF808FB00BF4DF808EDA9
:100AF000FFF7EAFF34BF012000205DF808FB00BFCC
:100B00004DF808EDFFF7E0FF94BF012000205DF8ED
:100B100008FB00BF4DF808EDFFF7CEFF94BF0120A2
:100B200000205DF808FB00BF4DF808EDFFF7C4FF9B
:100B300034BF012000205DF808FB00BF4FEA410CE4
:100B40007FEA6C5C02D150EA013C0AD14FEA430CC7
:100B50007FEA6C5C02D152EA033C02D14FF0000004
:100B600070474FF0010070474FEA4102B2F1E04395
:100B700024BFB3F5001CDCF1FE5C0DD901F0004C84
:100B80004FEAC0024CEA5070B2F1004F40EB8300D4
:100B900008BF20F00100704711F0804F21D113F100
:100BA0003872BCBF01F00040704741F480114FEA39
:100BB0005252C2F11802C2F1200C10FA0CF320FAC2
:100BC00002F018BF40F001004FEAC1234FEAD323DF
:100BD00003FA0CFC40EA0C0023FA02F34FEA430349
:100BE000CCE77FEA625307D150EA01331EBF4FF0D2
:100BF000FE4040F44000704701F0004040F0FE40ED
:100C000040F40000704700BF53B94AB9002908BF3B
:100C100000281CBF4FF0FF314FF0FF3000F074B9D7
:100C2000ADF1080C6DE904CE00F006F8DDF804E043
:100C3000DDE9022304B070472DE9F047089D044622
:100C40008E46002B4DD18A42944669D9B2FA82F27F
:100C500052B101FA02F3C2F1200120FA01F10CFABB
:100C600002FC41EA030E94404FEA1C48210CBEFBF3
:100C7000F8F61FFA8CF708FB16E341EA034306FB7C
:100C800007F199420AD91CEB030306F1FF3080F00B
:100C90001F81994240F21C81023E63445B1AA4B258
:100CA000B3FBF8F008FB103344EA034400FB07F7FA
:100CB000A7420AD91CEB040400F1FF3380F00A813B
:100CC000A74240F207816444023840EA0640E41B30
:100CD00000261DB1D4400023C5E900433146BDE8DC
:100CE000F0878B4209D9002D00F0EF800026C5E97E
:100CF000000130463146BDE8F087B3FA83F6002E96
:100D00004AD18B4202D3824200F2F980841A61EB0D
:100D1000030301209E46002DE0D0C5E9004EDDE72B
:100D200002B9FFDEB2FA82F2002A40F09280A1EB13
:100D30000C014FEA1C471FFA8CFE0126200CB1FB68
:100D4000F7F307FB131140EA01410EFB03F0884261
:100D500008D91CEB010103F1FF3802D2884200F2EE
:100D6000CB804346091AA4B2B1FBF7F007FB101180
:100D700044EA01440EFB00FEA64508D91CEB04041E
:100D800000F1FF3102D2A64500F2BB800846A4EB79
:100D90000E0440EA03409CE7C6F12007B34022FA64
:100DA00007FC4CEA030C20FA07F401FA06F31C4393
:100DB000F9404FEA1C4900FA06F3B1FBF9F8200CA0
:100DC0001FFA8CFE09FB181140EA014108FB0EF0E6
:100DD000884202FA06F20BD91CEB010108F1FF3A36
:100DE00080F08880884240F28580A8F10208614442
:100DF000091AA4B2B1FBF9F009FB101144EA014150
:100E000000FB0EFE8E4508D91CEB010100F1FF34FA
:100E10006CD28E456AD90238614440EA0840A0FB92
:100E20000294A1EB0E01A142C846A64656D353D068
:100E30005DB1B3EB080261EB0E0101FA07F722FA8C
:100E400006F3F1401F43C5E9007100263146BDE8B5
:100E5000F087C2F12003D8400CFA02FC21FA03F318
:100E6000914001434FEA1C471FFA8CFEB3FBF7F099
:100E700007FB10360B0C43EA064300FB0EF69E42BE
:100E800004FA02F408D91CEB030300F1FF382FD257
:100E90009E422DD9023863449B1B89B2B3FBF7F6FF
:100EA00007FB163341EA034106FB0EF38B4208D9D8
:100EB0001CEB010106F1FF3816D28B4214D9023E19
:100EC0006144C91A46EA004638E72E46284605E737
:100ED0000646E3E61846F8E64B45A9D2B9EB020808
:100EE00064EB0C0E0138A3E74646EAE7204694E798
:100EF0004046D1E7D0467BE7023B614432E73046CB
:100F000009E76444023842E7704700BF80B485B007
:100F100000AF03460A46FB711346BB714FF06043B6
:100F2000D3F8803E03F00103002B1DD04FF0604347
:100F3000D3F8002EBB7922FA03F303F00103002B50
:100F400014D041F28833FB6004E0FB68013BFB6096
:100F5000002B0DD04FF060431B68002BF5D04FF0F5
:100F60006042FB79137004E000BF02E000BF00E0C4
:100F700000BF1437BD465DF8047B704780B582B072
:100F800000AF78600B46FB7008E07B685A1C7A6003
:100F90001B78FA7811461846FFF7B8FF7B681B7874
:100FA000002BF2D100BF00BF0837BD4680BD80B521
:100FB00082B000AF786000217868FFF7DFFF00BFE4
:100FC0000837BD4680BD0000F0B5D9B00AAF02F0C9
:100FD00003FD00F063F800F001F900F0C9F800F03B
:100FE00039FA2C4800F01CFE034687F837314FF4DD
:100FF0007A7002F063FD012000F032FAC7F8300188
:10100000012000F03FFAC7F82C0107F58E7207F5B2
:101010008A7107F59273184600F0BAFE97F83721E7
:10102000B7F924319C46B7F926311946B7F928316A
:101030001C46B7F91C311D46B7F91E311E46B7F9DB
:101040002031FB60B7F91431BB60B7F916317B6012
:10105000B7F918313B6007F11400D7F83031099324
:10106000D7F82C3108933B6807937B680693BB68DD
:101070000593FB68049303960295019400916346DF
:10108000054902F0A7FD07F114031846FFF78FFF8B
:10109000ADE700BF94000020AC54000880B594B0C8
:1010A00000AF07F1200330220021184602F08AFD2C
:1010B00007F10C0300221A605A609A60DA601A6124
:1010C0000023BB60284B1B6C274A43F080531364FA
:1010D000254B1B6C03F08053BB60BB6800237B6017
:1010E000224B1B68214A43F4404313601F4B1B688B
:1010F00003F440437B607B6802233B620123FB6275
:1011000010233B630223BB630023FB6308233B6480
:10111000A8237B640223BB640423FB6407F1200340
:10112000184601F04BFD0346002B01D000F0A6F855
:101130000F23FB6002233B6100237B614FF4A0532C
:10114000BB614FF48053FB6107F10C030521184686
:1011500001F0ACFF0346002B01D000F08FF800BF78
:101160005037BD4680BD00BF0038024000700040CF
:1011700080B500AF174B184A1A60164B4FF48272B5
:101180005A60144B00229A60124B0022DA60114B15
:1011900000221A610F4B00225A610E4B4FF400726D
:1011A0009A610C4B0022DA610A4B00221A62094B49
:1011B00000225A62074B00229A62064B0A22DA6228
:1011C000044800F053FF0346002B01D000F056F80E
:1011D00000BF80BD940000200030014080B588B081
:1011E00000AF07F10C0300221A605A609A60DA60BF
:1011F0001A610023BB601F4B1B6B1E4A43F0800328
:1012000013631C4B1B6B03F08003BB60BB680023A4
:101210007B60184B1B6B174A43F001031363154B9C
:101220001B6B03F001037B607B6800233B60114B69
:101230001B6B104A43F0020313630E4B1B6B03F04E
:1012400002033B603B68002214210B4802F0C4FA01
:101250001423FB6001233B6100237B610023BB61FE
:1012600007F10C031946044802F00AF900BF2037C1
:10127000BD4680BD003802400000024080B400AF8F
:1012800072B600BFFEE7000080B500AF0122042166
:101290001B4802F0A1FA0A2002F010FC1E2000F008
:1012A00033F80A2002F00AFCA22000F04BF80346B3
:1012B0001A46144B1A80A42000F044F803461A463C
:1012C000104B5A80A62000F03DF803461A460D4BFD
:1012D0009A80A82000F036F803461A46094BDA80B7
:1012E000AA2000F02FF803461A46064B1A81AC20BC
:1012F00000F028F803461A46024B5A8100BF80BD11
:1013000000000240EC00002080B582B000AF034630
:10131000FB7100220421094802F05EFAF91D322314
:101320000122074800F02BFF01220421034802F0AC
:1013300053FA00BF0837BD4680BD00BF0000024021
:101340009400002080B586B002AF0346FB710022F6
:1013500004210F4802F040FA07F10802F91D322378
:10136000009303230B4801F057F901220421084898
:1013700002F032FA7B7A1B021AB2BB7A1BB2134319
:101380001BB2FB81FB8918461037BD4680BD00BFEC
:10139000000002409400002080B586B002AF0346F2
:1013A000FB71002204210F4802F016FA07F108022F
:1013B000F91D3223009304230B4801F02DF901227B
:1013C0000421084802F008FA7B7A1B04BA7A120258
:1013D0001343FA7A1343FB60FB6818461037BD4687
:1013E00080BD00BF000002409400002080B582B0A4
:1013F00000AF094B1B781846FFF786FF074B1B68A9
:10140000184602F05BFB0020FFF7C6FF78607B68A0
:1014100018460837BD4680BD0100002004000020AA
:1014200080B582B000AF094B1B781846FFF76CFF00
:10143000074B1B68184602F041FB0020FFF7ACFF8A
:1014400078607B6818460837BD4680BD00000020E4
:101450000400002080B500AFFFF716FF00BF80BD7D
:1014600080B582B000AF0346FB71FB79002B01D041
:1014700000F01AF8024B1B6818460837BD4680BDBD
:10148000F800002080B582B000AF0346FB71FB7905
:10149000002B01D000F008F8024B1B6818460837F3
:1014A000BD4680BDFC0000202DE9B04FD4B000AF98
:1014B000FFF7B6FFC7F83401FFF798FFC7F8300110
:1014C000734B1B891B021A46D7F830319B1AC7F899
:1014D0002C31D7F82C31DA179A4693466C4B5B893E
:1014E0009BB200221C46154604FB0BF20AFB05F3D7
:1014F0001344AAFB04894B44994642464B46002BB1
:1015000007DA64495118396543F100037B65D7E96F
:1015100014234FF000004FF00001D00D40EA4320AB
:10152000D91502460B4612F5FA61B96443F100037E
:10153000FB64D7E91234C7E95234554B5B889BB240
:101540000022C7F8C030C7F8C4204FF000044FF0A5
:101550000005D7E9301213461D040B4645EA134532
:101560000B461C044A4BDB889BB20022C7F8B830FC
:10157000C7F8BC20D7F82C31DA17C7F8B030C7F855
:10158000B420D7E92E894B46D7E92CAB524602FB53
:1015900003F25B46414601FB03F3134442465146C6
:1015A000A2FB0112C7F8EC200A46C7F8E820D7F8DA
:1015B000EC201344C7F8EC30D7E93A23002B07DAC4
:1015C00012F17F01396443F100037B64D7E91023F2
:1015D0004FF000004FF00001D00940EA4360D911FC
:1015E00002460B46A118B96345EB0303FB63D7E939
:1015F0000E34C7E95034264B1B889BB20022C7F833
:10160000A830C7F8AC204FF000044FF00005D7E930
:101610002A121346DD030B4645EA53450B46DC030D
:101620001B4B9B889BB20022C7F8A030C7F8A420B0
:10163000D7F82C31DA17C7F89830C7F89C20D7E9CB
:1016400028894B46D7E926AB524602FB03F25B469C
:10165000414601FB03F3134442465146A2FB0112EB
:10166000C7F8E4200A46C7F8E020D7F8E42013447E
:10167000C7F8E430D7E93823002B0DDA12F1FF0167
:10168000396343F100037B63D7E90C2304E000BF17
:10169000EC000020FFFF7F004FF000004FF0000142
:1016A000100A40EA0360191202460B46A118B962FB
:1016B00045EB0303FB62D7E90A34C7E94E34D7E9A7
:1016C0005223B2F5FA6F73F1000380F2D480D7F899
:1016D0002C31DA17C7F89030C7F89420D7F82C319E
:1016E000DA17C7F88830C7F88C20D7E924452B468D
:1016F000D7E92289424602FB03F24B46214601FB11
:1017000003F3134422464146A2FB0112C7F8DC2032
:101710000A46C7F8D820D7F8DC201344C7F8DC30D5
:101720004FF000024FF00003D7E936452146CA0FBB
:10173000294642EA41022946CB17C7E94823D7E99F
:101740005223B2F5FA61C7F8801043F1FF33C7F8AE
:101750008430D7E95223B2F5FA61B96743F1FF3318
:10176000FB67D7E920452B46D7E91E89424602FB95
:1017700003F24B46214601FB03F313442246414644
:10178000A2FB0112C7F8CC200A46C7F8C820D7F838
:10179000CC201344C7F8CC30D7E93234C7E94634FB
:1017A000C7E94634D7E9464522462B464FF00000AC
:1017B0004FF00001990041EA9271900002460B46F9
:1017C000111939676B417B674FF000024FF000033E
:1017D000D7E91C4521464A08294642EAC1722946F2
:1017E0004B10C7E94423D7E9464522462B464FF024
:1017F00000004FF00001990041EA9271900002460A
:101800000B461119B9666B41FB664FF000024FF0B1
:101810000003D7E91A4521468A08294642EA81721F
:1018200029468B10C7E94223D7E95201D7E948235B
:10183000841A3C6261EB03037B62D7E90834C7E991
:101840005234D7E95001D7E94423841ABC6161EBD3
:101850000303FB61D7E90634C7E95034D7E94E01E9
:10186000D7E94223841A3C6161EB03037B61D7E92A
:101870000434C7E94E34D7F8343100223B667A6627
:10188000D7F83831D7E918452A4602FB03F2D7F8D2
:101890003C31214601FB03F31344D7F8382121469C
:1018A000A2FB0112C7F8D4200A46C7F8D020D7F807
:1018B000D4201344C7F8D430D7E93423002B07DAF7
:1018C0003F495118B96043F10003FB60D7E9022397
:1018D0004FF000004FF00001500D40EAC3205915B1
:1018E000D7E95023841ABC6561EB0303FB65D7E994
:1018F0001623002B08DA47F6FF715118396043F1BF
:1019000000037B60D7E900234FF000004FF0000197
:10191000D00B40EA4340D913C7E94001D7F848311A
:10192000284A1360D7F80031274A1360264B1B68FA
:1019300007EE903AF8EEE77AC7ED3F7A97ED3F7AF7
:10194000DFED226AC7EE267AC7ED3E7A204BC7F854
:10195000F430D7F8F800FEF7FFFD04460D46D7F83F
:10196000F400FEF7F9FD02460B4643EC112B45EC63
:10197000104B02F09DFD53EC102B4FF00000154969
:10198000FEF78AFC02460B46104619460AA3D3E925
:101990000023FEF739FE02460B4610461946FFF7B4
:1019A000E3F803460C4A136000BF07F5A877BD466D
:1019B000BDE8B08FAFF300803D0AD7A358A5E5403E
:1019C000FFFF1F00F8000020FC00002080E6C54754
:1019D000AEDC423E0000F03F0001002080B400AFCA
:1019E00000BFBD465DF8047B7047000080B500AFC6
:1019F000FFF7F4FF00221021024801F0EDFE00BFC6
:101A000080BD00BF0000024080B500AF0122102160
:101A1000024801F0E1FE00BF80BD00BF00000240AF
:101A200080B586B002AF0346FB710023FB730A4BFF
:101A3000186807F10F02F91D4FF48053009301233A
:101A400000F0EAFD0346002B01D0FF2300E0FB7B02
:101A500018461037BD4680BD0401002080B582B015
:101A600000AF78600B46FB7013463B80FFF7BEFF6C
:101A7000FB781846FFF7D4FF0AE07B681B7818460E
:101A8000FFF7CEFF3B88013B3B807B6801337B60E7
:101A90003B88002BF1D1FFF7B7FF00BF0837BD46E9
:101AA00080BD000080B584B000AF78600B46FB704D
:101AB00013463B80FFF79AFF8022FB781343DBB28B
:101AC000FB730B4B186807F10F014FF0FF33012236
:101AD00000F055FB064B18683A884FF0FF337968E1
:101AE00000F089FCFFF790FF00BF1037BD4680BDB6
:101AF0000401002080B582B000AF03460A46FB71A6
:101B00001346BB71F979BB1D01221846FFF7A6FFEA
:101B10000A2001F0D3FF00BF0837BD4680BD80B565
:101B200082B000AF03463A60FB710B46BB71BB79D4
:101B30009AB2FB7919463868FFF7B4FF00BF08373F
:101B4000BD4680BD80B582B000AF03460A46FB713A
:101B50001346BB7125230C2211461846FFF7CAFF16
:101B60002622FB7919461046FFF7C4FF6322BB7992
:101B700019461046FFF7BEFF2722802343F00103DA
:101B8000DBB219461046FFF7B5FF00BF0837BD4668
:101B900080BD80B582B000AF03463A60FB710B4652
:101BA000BB7125200C2280231343DBB21946FFF7BB
:101BB000A1FF2622FB7919461046FFF79BFF27203D
:101BC0008022BB791343DBB21946FFF793FF012054
:101BD00001F074FF4920BB793A681946FFF79FFF6F
:101BE00000BF0837BD4680BD80B500AF7523044AED
:101BF00001211846FFF793FF014B1B78184680BD63
:101C00000801002080B500AF0023044A01211846D6
:101C1000FFF7BFFF014B1B78184680BD080100206D
:101C200080B584B000AF7860564A7B6813606B2340
:101C3000012211461846FFF75DFF6A232022114654
:101C40001846FFF757FF24230D2211461846FFF7C9
:101C500051FF0A23002211461846FFF773FF6B233A
:101C6000802211461846FFF745FF0A2001F026FFA3
:101C70000B23012211461846FFF764FF6B23012254
:101C800011461846FFF736FFFFF7AEFF0346FB731A
:101C9000FB7B712B04D0FB7B702B01D0FB7B6CE0BA
:101CA0006C23002211461846FFF724FF1C2318223C
:101CB00011461846FFF71EFF1B2300221146184647
:101CC000FFF718FF1D23012211461846FFF712FFE8
:101CD0001A23012211461846FFF70CFF1923002191
:101CE0001846FFF707FF6A23202211461846FFF720
:101CF00001FF24230D2211461846FFF7FBFEFFF7D4
:101D000081FF0346482B01D0012336E00A2300223D
:101D100011461846FFF716FF642001F0CFFE0A2394
:101D20000F2211461846FFF70DFF642001F0C6FE92
:101D30001023154A03211846FFF72BFF0A23002220
:101D400011461846FFF7FEFE642001F0B7FE0A2395
:101D5000162211461846FFF7F5FE642001F0AEFE8C
:101D60006B23012211461846FFF7C4FE0323074ADE
:101D700007211846FFF70DFFFB7B18461037BD46BD
:101D800080BD00BF040100202001002008010020C8
:101D900080B586B000AFF860B9607A603B23634AD3
:101DA00015211846FFF7BBFE604B1B781B021AB2C9
:101DB0005E4B5B781BB213431AB2FB681A805B4B15
:101DC0009B781B0219B2594BDB781AB2FB680233BD
:101DD0000A4312B21A80554B1B791B0219B2534B9E
:101DE0005B791AB2FB6804330A4312B21A804F4B74
:101DF0001B7A1B021AB24D4B5B7A1BB213431AB209
:101E00007B681A80494B9B7A1B0219B2474BDB7ADD
:101E10001AB27B6802330A4312B21A80434B1B7B0F
:101E20001B0219B2414B5B7B1AB27B6804330A4335
:101E300012B21A803D4BDB7B1B021AB23B4B9B7BE1
:101E40001BB21343FB82394B5B7C1B021AB2374B2C
:101E50001B7C1BB21343BB82344BDB7C1B021AB2CC
:101E6000324B9B7C1BB213437B82B7F9163007EED3
:101E7000903AB8EEE77A2E4B1B78803B07EE903A0B
:101E8000F8EEE76A9FED2B6AC6EE867AF7EE006AF7
:101E900077EEA67A67EE277AFDEEE77A17EE903AAC
:101EA0001AB2BB681A80B7F9143007EE903AB8EE50
:101EB000E77A1F4B5B78803B07EE903AF8EEE76AD3
:101EC0009FED1C6AC6EE867AF7EE006A77EEA67A78
:101ED00067EE277ABB680233FDEEE77A17EE902AA9
:101EE00012B21A80B7F9123007EE903AB8EEE77ADC
:101EF0000F4B9B78803B07EE903AF8EEE76A9FED38
:101F00000D6AC6EE867AF7EE006A77EEA67A67EE7D
:101F1000277ABB680433FDEEE77A17EE902A12B2F7
:101F20001A8000BF1837BD4680BD00BF08010020E1
:101F3000200100200000804380B400AFFEE780B4A1
:101F400000AFFEE780B400AFFEE780B400AFFEE76D
:101F500080B400AFFEE780B400AF00BFBD465DF8BF
:101F6000047B704780B400AF00BFBD465DF8047BC2
:101F7000704780B400AF00BFBD465DF8047B70477A
:101F800080B500AF01F07AFD00BF80BD80B483B0A2
:101F900000AF00237B60104B5B6C0F4A43F480431F
:101FA00053640D4B5B6C03F480437B607B680023C0
:101FB0003B60094B1B6C084A43F080531364064B8B
:101FC0001B6C03F080533B603B6800BF0C37BD4681
:101FD0005DF8047B704700BF0038024080B58AB0CE
:101FE00000AF786007F1140300221A605A609A600B
:101FF000DA601A617B681B68194A93422BD100236F
:102000003B61184B5B6C174A43F480535364154B88
:102010005B6C03F480533B613B690023FB60114B15
:102020001B6B104A43F0010313630E4B1B6B03F051
:102030000103FB60FB68E0237B610223BB6100239B
:10204000FB6103233B6205237B6207F114031946FE
:10205000054801F015FA00BF2837BD4680BD00BF16
:1020600000300140003802400000024080B582B0DC
:1020700000AF78607B68002B01D101237BE07B6897
:102080005B6A002B08D17B685B68B3F5827F09D05F
:102090007B680022DA6105E07B6800221A617B68B8
:1020A00000225A617B6800229A627B6893F8513063
:1020B000DBB2002B06D17B68002283F850207868C1
:1020C000FFF78CFF7B68022283F851207B681B6836
:1020D0001A687B681B6822F040021A607B685B68A4
:1020E00003F482727B689B6803F404431A437B68A1
:1020F000DB6803F400631A437B681B6903F0020387
:102100001A437B685B6903F001031A437B689B6990
:1021100003F400731A437B68DB6903F038031A4346
:102120007B681B6A03F0800342EA03017B689B6AB9
:1021300003F400527B681B680A431A607B689B6942
:102140001B0C03F004017B685B6A03F010027B68E0
:102150001B680A435A607B681B68DA697B681B68E6
:1021600022F40062DA617B6800225A657B680122F2
:1021700083F85120002318460837BD4680BD80B53E
:1021800088B000AFF860B9603B601346FB80002365
:10219000FB77FB6893F85030012B01D1022326E135
:1021A000FB68012283F8502001F07CFCB861FB88B9
:1021B000FB82FB6893F85130DBB2012B02D0022383
:1021C000FB770BE1BB68002B02D0FB88002B02D110
:1021D0000123FB7702E1FB68032283F85120FB68AF
:1021E00000225A65FB68BA681A63FB68FA889A8607
:1021F000FB68FA88DA86FB6800229A63FB68002293
:102200009A87FB680022DA87FB6800225A64FB6821
:1022100000221A64FB689B68B3F5004F0FD1FB687E
:102220001B681A68FB681B6822F040021A60FB6892
:102230001B681A68FB681B6842F480421A60FB68DE
:102240001B681B6803F04003402B07D0FB681B682A
:102250001A68FB681B6842F040021A60FB68DB6882
:10226000B3F5006F4BD1FB685B68002B02D0FB8A93
:10227000012B3ED1FB681B6B1A88FB681B68DA6078
:10228000FB681B6B9A1CFB681A63FB68DB8E9BB2B6
:10229000013B9AB2FB68DA862BE0FB681B689B68FF
:1022A00003F00203022B12D1FB681B6B1A88FB6838
:1022B0001B68DA60FB681B6B9A1CFB681A63FB687F
:1022C000DB8E9BB2013B9AB2FB68DA8611E001F02B
:1022D000E9FB0246BB69D31A3A689A4203D83B68C5
:1022E000B3F1FF3F02D13B68002B02D10323FB7700
:1022F00074E0FB68DB8E9BB2002BCED14CE0FB6818
:102300005B68002B02D0FB8A012B40D1FB681A6B63
:10231000FB681B680C3312781A70FB681B6B5A1C25
:10232000FB681A63FB68DB8E9BB2013B9AB2FB68C9
:10233000DA862CE0FB681B689B6803F00203022B23
:1023400013D1FB681A6BFB681B680C3312781A7088
:10235000FB681B6B5A1CFB681A63FB68DB8E9BB225
:10236000013B9AB2FB68DA8611E001F09BFB024662
:10237000BB69D31A3A689A4203D83B68B3F1FF3F6E
:1023800002D13B68002B02D10323FB7726E0FB68D8
:10239000DB8E9BB2002BCDD1BA693968F86800F0AA
:1023A000CBFB0346002B02D0FB6820225A65FB685A
:1023B0009B68002B0AD100233B61FB681B68DB682C
:1023C0003B61FB681B689B683B613B69FB685B6D1D
:1023D000002B02D00123FB7700E000BFFB68012245
:1023E00083F85120FB68002283F85020FB7F1846B9
:1023F0002037BD4680BD80B588B002AFF860B960B7
:102400003B601346FB800023FB75FB685B68B3F5FC
:10241000827F12D1FB689B68002B0ED1FB680422DF
:1024200083F85120FA883B6800931346BA68B9686C
:10243000F86800F0F1F80346EAE0FB6893F85030E2
:10244000012B01D10223E3E0FB68012283F8502035
:1024500001F028FB3861FB6893F85130DBB2012BA7
:1024600002D00223FB75CAE0BB68002B02D0FB88B8
:10247000002B02D10123FB75C1E0FB68042283F825
:102480005120FB6800225A65FB68BA689A63FB68B2
:10249000FA889A87FB68FA88DA87FB6800221A6351
:1024A000FB6800229A86FB680022DA86FB6800221D
:1024B0001A64FB6800225A64FB689B68B3F5004FFE
:1024C0000FD1FB681B681A68FB681B6822F040028A
:1024D0001A60FB681B681A68FB681B6822F480425C
:1024E0001A60FB681B681B6803F04003402B07D091
:1024F000FB681B681A68FB681B6842F040021A60A0
:10250000FB68DB68002B62D12EE0FB681B689B68D0
:1025100003F00103012B15D1FB681B6803F10C02CA
:10252000FB689B6B1278D2B21A70FB689B6B5A1CCB
:10253000FB689A63FB68DB8F9BB2013B9AB2FB6836
:10254000DA8711E001F0AEFA02463B69D31A3A6825
:102550009A4203D83B68B3F1FF3F02D13B68002B9E
:1025600002D10323FB754AE0FB68DB8F9BB2002B93
:10257000CBD131E0FB681B689B6803F00103012BA2
:1025800013D1FB681B68DA68FB689B6B92B21A80F8
:10259000FB689B6B9A1CFB689A63FB68DB8F9BB2A2
:1025A000013B9AB2FB68DA8711E001F07BFA024640
:1025B0003B69D31A3A689A4203D83B68B3F1FF3FAC
:1025C00002D13B68002B02D10323FB7517E0FB68A7
:1025D000DB8F9BB2002BCDD13A693968F86800F0E7
:1025E00045FA0346002B02D0FB6820225A65FB689F
:1025F0005B6D002B02D00123FB7500E000BFFB6880
:10260000012283F85120FB68002283F85020FB7DD3
:1026100018461837BD4680BD80B58CB000AFF86055
:10262000B9607A607B800123FB62002387F82B303E
:10263000FB6893F85030012B01D102238AE1FB683B
:10264000012283F8502001F02DFA7862FB6893F89C
:10265000513087F82330FB685B68FB617B887B83A4
:1026600097F82330012B0FD0FB69B3F5827F07D198
:10267000FB689B68002B03D197F82330042B03D011
:10268000022387F82B305BE1BB68002B05D07B6809
:10269000002B02D07B88002B03D1012387F82B303D
:1026A0004EE1FB6893F85130DBB2042B03D0FB689A
:1026B000052283F85120FB6800225A65FB687A687E
:1026C0009A63FB687A88DA87FB687A889A87FB685E
:1026D000BA681A63FB687A88DA86FB687A889A8611
:1026E000FB6800221A64FB6800225A64FB681B68BE
:1026F0001B6803F04003402B07D0FB681B681A6877
:10270000FB681B6842F040021A60FB68DB68B3F5A7
:10271000006F78D1FB685B68002B02D07B8B012BAC
:1027200066D1FB681B6B1A88FB681B68DA60FB6864
:102730001B6B9A1CFB681A63FB68DB8E9BB2013B28
:102740009AB2FB68DA8653E0FB681B689B6803F06B
:102750000203022B1BD1FB68DB8E9BB2002B16D031
:10276000FB6A012B13D1FB681B6B1A88FB681B6883
:10277000DA60FB681B6B9A1CFB681A63FB68DB8ED4
:102780009BB2013B9AB2FB68DA860023FB62FB68CE
:102790001B689B6803F00103012B19D1FB68DB8FD9
:1027A0009BB2002B14D0FB681B68DA68FB689B6B3C
:1027B00092B21A80FB689B6B9A1CFB689A63FB6859
:1027C000DB8F9BB2013B9AB2FB68DA870123FB6285
:1027D00001F068F902467B6AD31ABA6B9A4207D8AD
:1027E000BB6BB3F1FF3F03D0032387F82B30A7E087
:1027F000FB68DB8E9BB2002BA6D1FB68DB8F9BB204
:10280000002BA1D17CE0FB685B68002B02D07B8BA6
:10281000012B6BD1FB681A6BFB681B680C331278B9
:102820001A70FB681B6B5A1CFB681A63FB68DB8E13
:102830009BB2013B9AB2FB68DA8657E0FB681B68E3
:102840009B6803F00203022B1CD1FB68DB8E9BB25A
:10285000002B17D0FB6A012B14D1FB681A6BFB68A5
:102860001B680C3312781A70FB681B6B5A1CFB68D0
:102870001A63FB68DB8E9BB2013B9AB2FB68DA8677
:102880000023FB62FB681B689B6803F00103012BBC
:1028900019D1FB68DB8F9BB2002B14D0FB681B683F
:1028A000DA68FB689B6BD2B21A70FB689B6B5A1C90
:1028B000FB689A63FB68DB8F9BB2013B9AB2FB68B3
:1028C000DA870123FB6201F0EDF802467B6AD31A36
:1028D000BA6B9A4203D8BB6BB3F1FF3F02D1BB6B1B
:1028E000002B03D1032387F82B3029E0FB68DB8E14
:1028F0009BB2002BA2D1FB68DB8F9BB2002B9DD13A
:102900007A6AB96BF86800F017F90346002B06D015
:10291000012387F82B30FB6820225A6510E0FB6802
:102920009B68002B0BD100237B61FB681B68DB6875
:102930007B61FB681B689B687B617B6900E000BF73
:10294000FB68012283F85120FB68002283F85020A5
:1029500097F82B3018463037BD4680BD80B588B01B
:1029600000AFF860B9603B601346FB7101F09AF864
:102970000246BB6A9B1A3A681344FB6101F092F865
:10298000B861394B1B685B011B0DFA6902FB03F34D
:102990007B6154E03B68B3F1FF3F50D001F082F817
:1029A0000246BB69D31AFA699A4202D9FB69002B25
:1029B0003DD1FB681B685A68FB681B6822F0E00287
:1029C0005A60FB685B68B3F5827F11D1FB689B6836
:1029D000B3F5004F04D0FB689B68B3F5806F07D157
:1029E000FB681B681A68FB681B6822F040021A60CB
:1029F000FB689B6AB3F5005F0FD1FB681B681A6820
:102A0000FB681B6822F400521A60FB681B681A6896
:102A1000FB681B6842F400521A60FB68012283F8CD
:102A20005120FB68002283F85020032317E07B69C4
:102A3000002B01D10023FB617B69013B7B61FB68BB
:102A40001B689A68BB681340BA689A420CBF01239E
:102A50000023DBB21A46FB799A429BD10023184629
:102A60002037BD4680BD00BF1000002080B586B075
:102A700002AFF860B9607A60FB685B68B3F5827F8B
:102A800011D1FB689B68B3F5004F04D0FB689B68CD
:102A9000B3F5806F07D1FB681B681A68FB681B6879
:102AA00022F040021A60FB685B68B3F5827F2AD18E
:102AB000FB689B68B3F5806F12D07B680093BB689E
:102AC00000228021F868FFF749FF0346002B2DD034
:102AD000FB685B6D43F02002FB685A65032326E028
:102AE0007B680093BB6800220121F868FFF736FF7E
:102AF0000346002B1AD0FB685B6D43F02002FB6895
:102B00005A65032313E07B680093BB680022012110
:102B1000F868FFF723FF0346002B07D0FB685B6DC7
:102B200043F02002FB685A65032300E000231846A7
:102B30001037BD4680BD000080B588B002AFF86098
:102B4000B9607A601B4B1B681B4AA2FB03235B0D19
:102B50004FF47A7202FB03F37B61FB685B68B3F5A9
:102B6000827F12D17B680093BB6800228021F868C5
:102B7000FFF7F4FE0346002B16D0FB685B6D43F0B5
:102B80002002FB685A6503230FE07B69002B0AD003
:102B90007B69013B7B61FB681B689B6803F08003DA
:102BA000802BF2D000E000BF002318461837BD4646
:102BB00080BD00BF10000020819F5E1680B586B0EA
:102BC00000AF78607B68002B01D1012367E27B684E
:102BD0001B6803F00103002B75D0884B9B6803F042
:102BE0000C03042B0CD0854B9B6803F00C03082BC3
:102BF00012D1824B5B6803F48003B3F5800F0BD1D5
:102C00007E4B1B6803F40033002B5BD07B685B6852
:102C1000002B57D1012342E27B685B68B3F5803F0C
:102C200006D1764B1B68754A43F4803313601DE070
:102C30007B685B68B3F5A02F0CD1704B1B686F4AA3
:102C400043F4802313606D4B1B686C4A43F480335C
:102C500013600BE0694B1B68684A23F480331360F0
:102C6000664B1B68654A23F4802313607B685B68AE
:102C7000002B13D000F016FF386108E000F012FFBF
:102C800002463B69D31A642B01D9032307E25B4B4D
:102C90001B6803F40033002BF0D014E000F002FFB7
:102CA000386108E000F0FEFE02463B69D31A642B4F
:102CB00001D90323F3E1514B1B6803F40033002BCC
:102CC000F0D100E000BF7B681B6803F00203002B1B
:102CD00063D04A4B9B6803F00C03002B0BD0474B8F
:102CE0009B6803F00C03082B1CD1444B5B6803F476
:102CF0008003002B16D1414B1B6803F00203002B0D
:102D000005D07B68DB68012B01D00123C7E13B4B79
:102D10001B6823F0F8027B681B69DB00374913430B
:102D20000B603AE07B68DB68002B20D0344B01223B
:102D30001A6000F0B7FE386108E000F0B3FE02460A
:102D40003B69D31A022B01D90323A8E12B4B1B6843
:102D500003F00203002BF0D0284B1B6823F0F8028D
:102D60007B681B69DB00254913430B6015E0244B8E
:102D700000221A6000F096FE386108E000F092FE32
:102D800002463B69D31A022B01D9032387E11B4B6F
:102D90001B6803F00203002BF0D17B681B6803F073
:102DA0000803002B36D07B685B69002B16D0154BCF
:102DB00001221A6000F076FE386108E000F072FE31
:102DC00002463B69D31A022B01D9032367E10B4B5F
:102DD0005B6F03F00203002BF0D01BE0094B0022D5
:102DE0001A6000F05FFE38610EE000F05BFE024604
:102DF0003B69D31A022B07D9032350E10038024064
:102E000000004742800E4742884B5B6F03F002038D
:102E1000002BEAD17B681B6803F00403002B00F051
:102E200097800023FB75814B1B6C03F08053002BB4
:102E30000FD10023BB607D4B1B6C7C4A43F0805359
:102E400013647A4B1B6C03F08053BB60BB68012397
:102E5000FB75774B1B6803F48073002B18D1744B00
:102E60001B68734A43F48073136000F01BFE3861E3
:102E700008E000F017FE02463B69D31A022B01D985
:102E800003230CE16A4B1B6803F48073002BF0D022
:102E90007B689B68012B06D1644B1B6F634A43F030
:102EA000010313671CE07B689B68052B0CD15F4B0B
:102EB0001B6F5E4A43F0040313675C4B1B6F5B4A56
:102EC00043F0010313670BE0584B1B6F574A23F085
:102ED00001031367554B1B6F544A23F00403136718
:102EE0007B689B68002B15D000F0DCFD38610AE0A0
:102EF00000F0D8FD02463B69D31A41F28832934272
:102F000001D90323CBE0494B1B6F03F00203002BD5
:102F1000EED014E000F0C6FD38610AE000F0C2FD1A
:102F200002463B69D31A41F28832934201D9032306
:102F3000B5E03E4B1B6F03F00203002BEED1FB7D8F
:102F4000012B05D1394B1B6C384A23F08053136495
:102F50007B689B69002B00F0A180344B9B6803F0D9
:102F60000C03082B5CD07B689B69022B41D1314B51
:102F700000221A6000F096FD386108E000F092FD32
:102F800002463B69D31A022B01D9032387E0274B62
:102F90001B6803F00073002BF0D17B68DA697B6853
:102FA0001B6A1A437B685B6A9B011A437B689B6AB6
:102FB0005B08013B1B041A437B68DB6A1B061B4949
:102FC00013434B601B4B01221A6000F06BFD38610C
:102FD00008E000F067FD02463B69D31A022B01D9D5
:102FE00003235CE0114B1B6803F00073002BF0D04F
:102FF00054E0104B00221A6000F054FD386108E0E4
:1030000000F050FD02463B69D31A022B01D903237D
:1030100045E0064B1B6803F00073002BF0D13DE048
:103020007B689B69012B07D1012338E000380240FF
:1030300000700040600047421B4B5B68FB607B6890
:103040009B69012B28D0FB6803F480027B68DB6955
:103050009A4221D1FB6803F03F027B681B6A9A42C7
:103060001AD1FA6847F6C07313407A68526A92011F
:10307000934211D1FB6803F440327B689B6A5B0882
:10308000013B1B049A4207D1FB6803F070627B6826
:10309000DB6A1B069A4201D0012300E00023184698
:1030A0001837BD4680BD00BF0038024080B584B0EF
:1030B00000AF786039607B68002B01D10123CCE040
:1030C000684B1B6803F00F033A689A420CD9654BB2
:1030D0003A68D2B21A70634B1B6803F00F033A6868
:1030E0009A4201D00123B8E07B681B6803F0020319
:1030F000002B20D07B681B6803F00403002B05D055
:10310000594B9B68584A43F4E05393607B681B68B3
:1031100003F00803002B05D0534B9B68524A43F43D
:1031200060439360504B9B6823F0F0027B689B6880
:103130004D4913438B607B681B6803F00103002B30
:1031400044D07B685B68012B07D1474B1B6803F4B5
:103150000033002B19D101237FE07B685B68022BD1
:1031600003D07B685B68032B07D13F4B1B6803F0E0
:103170000073002B09D101236FE03B4B1B6803F068
:103180000203002B01D1012367E0374B9B6823F03A
:1031900003027B685B68344913438B6000F082FC58
:1031A000F8600AE000F07EFC0246FB68D31A41F2A8
:1031B0008832934201D903234FE02B4B9B6803F0E5
:1031C0000C027B685B689B009A42EBD1254B1B6825
:1031D00003F00F033A689A420CD2224B3A68D2B2FB
:1031E0001A70204B1B6803F00F033A689A4201D013
:1031F000012332E07B681B6803F00403002B08D036
:10320000194B9B6823F4E0527B68DB681649134333
:103210008B607B681B6803F00803002B09D0124BFE
:103220009B6823F460427B681B69DB000E491343F3
:103230008B6000F021F802460B4B9B681B0903F0E2
:103240000F030A49CB5C22FA03F3094A1360094BC6
:103250001B68184600F0E2FB002318461037BD46F5
:1032600080BD00BF003C024000380240FC54000812
:1032700010000020080000202DE9B04F94B000AFEE
:1032800000237B640023FB6400233B640023BB64B6
:10329000794B9B6803F00C03082B0DD0082B00F230
:1032A000E180002B02D0042B03D0DBE0734BBB6426
:1032B000DBE0724BBB64D8E06F4B5B6803F03F030D
:1032C0007B646D4B5B6803F48003002B63D06A4B17
:1032D0005B689B090022BB63FA63BB6BC3F3080303
:1032E0003B6300237B63D7E90C4522462B464FF016
:1032F00000004FF00001590141EAD261500102463D
:103300000B462146511A3961294663EB01037B6163
:103310004FF000024FF00003D7E904AB59468B0190
:10332000514643EA916351468A015146B2EB010886
:10333000594663EB01094FF000024FF000034FEADA
:10334000C90343EA58734FEAC80290469946234698
:1033500018EB0303BB602B4649EB0303FB604FF004
:1033600000024FF00003D7E9024529468B022146AF
:1033700043EA915321468A02104619467B6C00228B
:10338000BB62FA62D7E90A23FDF73EFC02460B4610
:103390001346FB6458E0384B5B689B0900221846D3
:1033A0001146C0F308033B6200237B62D7E908891A
:1033B00042464B464FF000004FF00001590141EAF0
:1033C000D261500102460B464146B2EB010A494622
:1033D00063EB010B4FF000024FF000034FEA8B1339
:1033E00043EA9A634FEA8A12B2EB0A0463EB0B05D5
:1033F0004FF000024FF00003EB0043EA5473E20089
:1034000014461D464346E3183B604B4645EB030319
:103410007B604FF000024FF00003D7E900452946DA
:103420008B02214643EA915321468A0210461946EF
:103430007B6C0022BB61FA61D7E90623FDF7E4FB50
:1034400002460B461346FB640B4B5B681B0C03F0F8
:10345000030301335B003B64FA6C3B6CB2FBF3F398
:10346000BB6402E0054BBB6400BFBB6C1846503721
:10347000BD46BDE8B08F00BF003802400024F40014
:1034800080B489B000AF7860396000237B6100238D
:103490003B610023BB610023FB6177E10122FB69F3
:1034A00002FA03F37B613B681B687A6913403B6156
:1034B0003A697B699A4240F066813B685B6803F039
:1034C0000303012B05D03B685B6803F00303022B69
:1034D00030D17B689B68BB61FB695B00032202FA09
:1034E00003F3DB43BA691340BB613B68DA68FB69ED
:1034F0005B0002FA03F3BA691343BB617B68BA69E4
:103500009A607B685B68BB610122FB6902FA03F386
:10351000DB43BA691340BB613B685B681B0903F07E
:103520000102FB6902FA03F3BA691343BB617B68CA
:10353000BA695A603B685B6803F00303032B17D03A
:103540007B68DB68BB61FB695B00032202FA03F363
:10355000DB43BA691340BB613B689A68FB695B0057
:1035600002FA03F3BA691343BB617B68BA69DA6094
:103570003B685B6803F00303022B23D1FB69DA0885
:103580007B68083253F82230BB61FB6903F0070304
:103590009B000F2202FA03F3DB43BA691340BB61BD
:1035A0003B681A69FB6903F007039B0002FA03F307
:1035B000BA691343BB61FB69DA087B680832B969F1
:1035C00043F822107B681B68BB61FB695B00032228
:1035D00002FA03F3DB43BA691340BB613B685B68E3
:1035E00003F00302FB695B0002FA03F3BA691343B9
:1035F000BB617B68BA691A603B685B6803F440335F
:10360000002B00F0C0800023FB60664B5B6C654ABA
:1036100043F480435364634B5B6C03F48043FB606F
:10362000FB68614AFB699B08023352F82330BB6197
:10363000FB6903F003039B000F2202FA03F3DB4351
:10364000BA691340BB617B68584A934237D07B68A4
:10365000574A934231D07B68564A93422BD07B68BD
:10366000554A934225D07B68544A93421FD07B68C9
:10367000534A934219D07B68524A934213D07B68D5
:10368000514A93420DD07B68504A934207D07B68E1
:103690004F4A934201D1092312E00A2310E0082384
:1036A0000EE007230CE006230AE0052308E00423CC
:1036B00006E0032304E0022302E0012300E00023EC
:1036C000FA6902F0030292009340BA691343BB61A6
:1036D0003549FB699B080233BA6941F823203D4B09
:1036E0009B68BB613B69DB43BA691340BB613B68C4
:1036F0005B6803F48013002B03D0BA693B69134362
:10370000BB61344ABB699360324BDB68BB613B6988
:10371000DB43BA691340BB613B685B6803F4001389
:10372000002B03D0BA693B691343BB61294ABB69CB
:10373000D360284B5B68BB613B69DB43BA691340CC
:10374000BB613B685B6803F40033002B03D0BA69AC
:103750003B691343BB611F4ABB6953601D4B1B6828
:10376000BB613B69DB43BA691340BB613B685B6883
:1037700003F48033002B03D0BA693B691343BB6168
:10378000144ABB691360FB690133FB61FB690F2BB2
:103790007FF684AE00BF00BF2437BD465DF8047BD2
:1037A000704700BF0038024000380140000002406E
:1037B0000004024000080240000C024000100240D9
:1037C0000014024000180240001C02400020024089
:1037D00000240240003C014080B483B000AF786018
:1037E0000B467B8013467B707B78002B03D07A8856
:1037F0007B689A6103E07B881A047B689A6100BF4A
:103800000C37BD465DF8047B7047000080B485B07E
:1038100000AF78607B6803F00703FB600C4BDB684C
:10382000BB60BA684FF6FF031340BB60FB681A0227
:10383000BB68134343F0BF6343F40033BB60044AE7
:10384000BB68D36000BF1437BD465DF8047B70478A
:1038500000ED00E080B400AF044BDB681B0A03F00E
:1038600007031846BD465DF8047B704700ED00E095
:1038700080B483B000AF03463960FB7197F907301D
:10388000002B0ADB3B68DAB20C4997F907301201CA
:10389000D2B20B4483F800230AE03B68DAB208494D
:1038A000FB7903F00F03043B1201D2B20B441A76EA
:1038B00000BF0C37BD465DF8047B704700E100E0B7
:1038C00000ED00E080B489B000AFF860B9607A60C4
:1038D000FB6803F00703FB61FB69C3F10703042BDB
:1038E00028BF0423BB61FB690433062B02D9FB69A3
:1038F000033B00E000237B614FF0FF32BB6902FA1B
:1039000003F3DA43BB681A407B699A404FF0FF31FA
:103910007B6901FA03F3D9437B680B4013431846D4
:103920002437BD465DF8047B7047000080B582B047
:1039300000AF78607B68013BB3F1807F01D3012346
:103940000FE00A4A7B68013B53600F214FF0FF30C4
:10395000FFF78EFF054B00229A60044B07221A6086
:10396000002318460837BD4680BD00BF10E000E0C8
:1039700080B582B000AF78607868FFF747FF00BF7E
:103980000837BD4680BD80B586B000AF0346B9603C
:103990007A60FB7300237B61FFF75CFF78617A68D4
:1039A000B9687869FFF78EFF024697F90F30114624
:1039B0001846FFF75DFF00BF1837BD4680BD80B5D4
:1039C00082B000AF78607868FFF7B0FF0346184612
:1039D0000837BD4680BD000080B500AF0E4B1B68A8
:1039E0000D4A43F4007313600B4B1B680A4A43F4FF
:1039F00080631360084B1B68074A43F480731360AD
:103A00000320FFF7B5FF0F2000F008F8FEF7BEFA1D
:103A10000023184680BD00BF003C024080B582B044
:103A200000AF7860124B1A68124B1B7819464FF49E
:103A30007A73B3FBF1F3B2FBF3F31846FFF7BFFF62
:103A40000346002B01D001230EE07B680F2B0AD820
:103A5000002279684FF0FF30FFF795FF064A7B6838
:103A60001360002300E0012318460837BD4680BDDF
:103A7000100000200C0000200800002080B400AFDF
:103A8000064B1B781A46064B1B681344044A136006
:103A900000BFBD465DF8047B704700BF0C000020EE
:103AA0002401002080B400AF034B1B681846BD46BC
:103AB0005DF8047B704700BF2401002080B584B00E
:103AC00000AF7860FFF7EEFFB8607B68FB60FB68D3
:103AD000B3F1FF3F05D00A4B1B781A46FB6813442D
:103AE000FB6000BFFFF7DEFF0246BB68D31AFA682F
:103AF0009A42F7D800BF00BF1037BD4680BD00BF57
:103B00000C00002080B400AF064BD3F88830054A83
:103B100043F47003C2F8883000BFBD465DF8047BF3
:103B2000704700BF00ED00E0DFF834D00D480E49CB
:103B30000E4A002302E0D458C4500433C4188C4207
:103B4000F9D30B4A0B4C002301E013600432A2426C
:103B5000FBD3FFF7D7FF00F011F8FDF735FA7047F8
:103B600000000320000000207800002050550008CD
:103B7000780000203C010020FEE7000070B50D4DEC
:103B80000D4C641BA4100026A64209D10B4D0C4C11
:103B900001F080FC641BA4100026A64205D170BD74
:103BA00055F8043B98470136EEE755F8043B984733
:103BB0000136F2E748550008485500084855000806
:103BC0004C55000802440346934200D1704703F865
:103BD000011BF9E70EB400B59CB01DAB0290069036
:103BE0006FF00041094807910491094953F8042BEB
:103BF00005910068019302A900F068F8029B002279
:103C00001A701CB05DF804EB03B07047140000207C
:103C10000802FFFF2DE9F0478E689E4282460C465F
:103C200090461F4638D88A8912F4906F32D02568A2
:103C30000969A5EB0109656905EB450505EBD57536
:103C400001334B446D109D4238BF1D46530531D59D
:103C5000294600F063FB064650B90C23CAF8003031
:103C6000A38943F04003A3814FF0FF30BDE8F08704
:103C700021694A4600F0BEFAA38923F4906343F019
:103C80008003A381266165614E44A5EB090526608A
:103C9000A5603E46BE4200D93E46206832464146B7
:103CA00000F0B6FAA3689B1BA3602368334423602B
:103CB0000020DBE72A4600F0A5FB06460028E1D1FC
:103CC0002169504600F0BEFAC7E700002DE9F04F29
:103CD00098468B891B069DB007460D4614460ED5A7
:103CE0000B6963B9402100F019FB2860286120B9F5
:103CF0000C233B604FF0FF30D1E040236B61002389
:103D0000099320238DF82930CDF80C803023DFF87B
:103D1000A8818DF82A304FF0010923469A4613F8FE
:103D2000012B0AB1252AF9D1BAEB040B0BD05B4663
:103D3000224629463846FFF76DFF013000F0AA8081
:103D4000099A5A4409929AF80030002B00F0A28098
:103D500000234FF0FF32CDE905230AF1010A049355
:103D600007938DF853301A935446052214F8011B1B
:103D70005148FCF73DFA049AD8B9D00644BF202335
:103D80008DF85330110744BF2B238DF853309AF828
:103D900000302A2B15D0079A544600204FF00A0C09
:103DA000214611F8013B303B092B4ED9B0B10792A7
:103DB00014E0A0EB080309FA03F313430493A246AB
:103DC000D2E7039B191D1B680391002BBBBF5B420D
:103DD00042F0020207930793B8BF049223782E2B78
:103DE0000CD163782A2B35D1039B1A1D1B680392D3
:103DF000002BB8BF4FF0FF3302340593DFF8C8A0A3
:103E0000217803225046FCF7F3F940B14023A0EBA0
:103E10000A0003FA00F0049B03430134049314F8EE
:103E2000011B26488DF828100622FCF7E1F900282E
:103E300038D0234B1BBB039B073323F00703083306
:103E40000393099B3344099367E70CFB02320C464A
:103E50000120A5E700230134059319464FF00A0C11
:103E6000204610F8012B303A092A03D9002BC5D07F
:103E70000591C3E70CFB012104460123F0E703ABE6
:103E800000932A460F4B04A93846AFF30080421C2A
:103E90000646D6D1AB895B063FF52CAF09981DB01D
:103EA000BDE8F08F03AB00932A46064B04A93846C1
:103EB00000F07AF8EBE700BF0C5500081655000833
:103EC00000000000153C0008125500082DE9F047DD
:103ED000164699468A680B69DDF820809342B8BF80
:103EE0001346336091F8432007460C460AB101336C
:103EF00033602368990642BF336802333360256814
:103F000015F0060506D104F1190AE36832689B1A18
:103F1000AB4226DC94F84320131E226818BF01230D
:103F200092062BD404F1430249463846C04701307B
:103F30001ED02368E568326803F00603042B08BF2F
:103F4000AD1AA36822690CBF25EAE57500259342E6
:103F5000C4BF9B1AED1800261A34B5421AD10020AE
:103F600008E00123524649463846C047013003D194
:103F70004FF0FF30BDE8F0870135C6E7E1185A1C65
:103F8000302081F84300224494F8451082F8431011
:103F90000233C7E70123224649463846C04701306D
:103FA000E6D00136D9E700002DE9FF470F7E0C9DD2
:103FB000782F914680460C469A4601F1430207D875
:103FC000622F0AD8002F00F0D880582F00F0A3806D
:103FD00004F1420584F842703AE0A7F16303152B1F
:103FE000F6D801A151F823F04140000855400008DF
:103FF000D13F0008D13F0008D13F0008D13F000861
:1040000055400008D13F0008D13F0008D13F0008CB
:10401000D13F000861410008854000084341000885
:10402000D13F0008D13F000883410008D13F00087C
:1040300085400008D13F0008D13F00084B410008EF
:104040002B681A1D1B682A6004F1420584F842306F
:104050000123A3E020682968060601F104030AD5BC
:104060000E682B60002E03DA2D23764284F843304D
:104070005E480A2319E00E682B6010F0400F18BF4D
:1040800036B2EFE72B682068191D2960010601D5BB
:104090001E6802E04606FBD51E8854486F2F0CBFF1
:1040A00008230A23002184F843106568A560002DC9
:1040B000A2BF216821F0040121600EB9002D4DD06E
:1040C0001546B6FBF3F103FB1167C75D05F8017DEB
:1040D0003746BB420E46F4D9082B0BD12368DE07C6
:1040E00008D5236961689942DEBF302305F8013C99
:1040F00005F1FF35521B2261CDF800A04B4603AA03
:1041000021464046FFF7E2FE01304CD14FF0FF3030
:1041100004B0BDE8F087354881F845702968236808
:1041200051F8046B29601D0614D5DF0744BF43F026
:10413000200323601EB9236823F02003236010238B
:10414000B0E7236843F0200323607823284884F8ED
:104150004530E3E7590648BFB6B2E6E71546BBE788
:104160002B6826686169181D286035061B6801D513
:10417000196002E07006FBD5198000232361154603
:10418000BAE72B681A1D2A601D686268002128465C
:10419000FCF72EF808B1401B6060636823610023C0
:1041A00084F84330A8E723692A4649464046D04769
:1041B0000130ABD023689B0713D4E068039B98427F
:1041C000B8BF1846A4E70123324649464046D047C7
:1041D00001309BD00135E36803995B1AAB42F2DCF6
:1041E000EBE7002504F11906F5E700BF1D550008AF
:1041F0002E5500080A44914200F1FF3300D1704768
:1042000010B511F8014B03F8014F9142F9D110BDDF
:10421000884210B501EB020402D98442234607D834
:10422000431EA14208D011F8012B03F8012FF8E733
:10423000024401468A4200D110BD13F8014D02F834
:10424000014DF7E737B5002944D051F8043C0190FF
:10425000002BA1F10404B8BFE41800F013F91E4AC2
:104260000198136833B96360146003B0BDE830404F
:1042700000F00EB9A34208D9256861198B4201BF2D
:1042800019685B6849192160EDE71A465B680BB154
:10429000A342FAD911685518A5420BD124682144CC
:1042A0005418A3421160E0D11C685B68536021443C
:1042B0001160DAE702D90C230360D6E7256861199B
:1042C0008B4204BF19685B68636004BF49192160B1
:1042D0005460CAE703B030BD2801002070B50E4E0F
:1042E0000C463168054611B900F0BCF83060214633
:1042F000284600F0B7F8431C0AD0C41C24F003047D
:10430000A04207D0211A284600F0ACF8013001D1B4
:104310004FF0FF34204670BD2C0100202DE9F04104
:10432000CD1C25F0030508350C2D38BF0C25002DBC
:10433000074601DBA94205D90C233B600026304625
:10434000BDE8F0812E4E00F09DF833681C4634BB6A
:1043500029463846FFF7C2FF431C04464DD1346856
:104360002646002E40D123683146384604EB030828
:1043700000F078F880453AD1216803356D1A25F0B0
:10438000030508350C2D38BF0C2529463846FFF7A4
:10439000A5FF01302BD023682B4423600EE0226858
:1043A000521B1ED40B2A16D96119A342256018BFCF
:1043B0005960636808BF316062514B60384604F150
:1043C0000B0600F065F826F00706231DF21AB6D09A
:1043D0009B1BA350B3E76268A3420CBF32605A60D4
:1043E000ECE723466468B2E734467668B9E70C2305
:1043F0003B60384600F04CF8A1E72560DEE700BFDF
:10440000280100202DE9F041804614460E4621B9CE
:10441000BDE8F0411146FFF781BF2AB9FFF712FF4F
:1044200025462846BDE8F08100F038F8844207466A
:1044300002D8B4EB500F12D821464046FFF76EFF6A
:1044400005460028EDD0BC422246314628BF3A46F8
:10445000FFF7D0FE31464046FFF7F4FEE1E7354670
:10446000DFE7000038B5064D0023044608462B6000
:1044700000F0FCFF431C02D12B6803B1236038BD60
:1044800030010020014800F011B800BF34010020C5
:10449000014800F00CB800BF3401002051F8043C82
:1044A000181F002BBCBF0B58C018704770477047CF
:1044B000F8B52DED028B55EC114B57EC106B00F05D
:1044C0006FF822462B4620462946B0EE408AF0EE91
:1044D000608AFCF733FB78B9002200233046394666
:1044E000FCF7FAFAF0B10022002320462946FCF737
:1044F000F3FA40B19FED288BB0EE480AF0EE680A5F
:10450000BDEC028BF8BD45EC104B00F00FFF00280E
:10451000F2D02046294600220023FCF7E7FA0028C3
:10452000EAD02EE0B0EE480AF0EE680A00F0FEFE97
:10453000A0B151EC180B00220023FCF7CDFA0028A3
:10454000DAD047EC106B00F0F1FE0028D4D045EC37
:10455000104B00F0EBFE0028CED012E047EC106BC1
:1045600000F0E4FE0028E4D045EC104B00F0DEFE45
:104570000028DED053EC182B51EC180BFCF7DEFAB8
:1045800020B900F081FF22230360B5E700F07CFF33
:1045900021230360B0E700BF000000000000F03FEF
:1045A0002DE9F04F55EC114B2DED0C8B25F0004A09
:1045B0005AEA040157EC106B87B015D1B3197E4845
:1045C00087F400225241994270EB020324D2224622
:1045D0002B4630463946FBF761FE41EC100B07B025
:1045E000BDEC0C8BBDE8F08F744927F0004989457C
:1045F00010EE102AB84616DD08F1404808F580187C
:1046000058EA0208E3D123196B4985F4002252418C
:10461000984571EB0203DAD39FED650B07B0BDEC53
:104620000C8BBDE8F08F11EE103AAB4642D06349D7
:104630008A45E1DC00F09480B8F1000F73DB0021C3
:1046400000917BB95D4B9A4500F08E805C4B9A459A
:1046500000F0A280BBF1804F00F0C284594B9B4513
:1046600000F0D78347EC106B029200F055FE029ADF
:1046700062B3009A4FEAD873013B0493134300F0EE
:104680009280514B9A4540F3A58003F104739A45FB
:104690004E4B40F33F84994540F3B484BBF1000F87
:1046A00040F3B484002007B0BDEC0C8BBDE8F04FA4
:1046B00000F028BE002E8AD1B9E747EC106B0092BB
:1046C00000F02AFE009A002A6DD10092B9F1000F85
:1046D00004D03B4B28F040429A42CAD1BBF1000FB4
:1046E00007DA53EC102B36490020FCF7B7F841EC01
:1046F000100BB8F1000FBFF672AF009B09F14049F3
:1047000009F5801959EA030340F0908453EC102B0B
:1047100010461946FBF7C0FD02460B46FCF79EF813
:1047200041EC100B5BE72A498A452FDCA1F154715B
:104730008A450FDD4FEA2A51A1F2FF31142940F3D7
:104740006784C1F1340123FA01F000FA01F19942C2
:1047500000F0A58400210091002B3FF477AF81E7A2
:10476000002B3FF469AF47E709F1404303F580139D
:1047700013433FF451AF154B994540F38483BBF18C
:10478000000FC0F2618445EC104B28E70221009134
:10479000002B3FF457AF65E7BBF1000FC0F2168462
:1047A00047EC106B1BE732463B46B1E7AFF30080A6
:1047B000000000000000F03F0000F0FF0000F07F6C
:1047C0000000F03F0000E03F0000E041FFFFEF3F4E
:1047D000FFFF3F43E44B08EA0303002253B951ECC7
:1047E000100BE24BFBF710FF41EC100B10EE909A10
:1047F0006FF034024FEA2953A3F2FF339A18DC4BCF
:104800000592C9F3130949F07F56994546F44016BD
:1048100007DDD84B994540F31B8401320592A6F57C
:1048200080169FEDB96B9FEDBA7B53EC162BB0EE63
:1048300047CAF0EE67CA0027B0EE47DAF0EE67DA53
:104840005BEC10ABB3465046594643EC1A2BFBF7D2
:1048500023FD53EC1A2B8046894650465946FBF7F8
:104860001DFD02460B460020C349FBF7F7FF41EC54
:104870001B0B404653EC1B2B4946FBF7C5FE41EC96
:10488000180B0A460146CDE902120021029176106A
:104890004BEC19AB46F00056DDE902AB06F5002300
:1048A0000020D91906460F4602460B465046594687
:1048B000FBF7AAFE02460B4640464946FBF7ECFCD6
:1048C00053EC1A2B8046894630463946FBF7E4FC08
:1048D00002460B4651EC190BFBF7DEFC52465B46D9
:1048E000FBF792FE02460B4640464946FBF7D4FCD6
:1048F00053EC1B2BFBF788FE53EC182B41EC1B0BE6
:1049000051EC180BFBF780FE83A3D3E90023064686
:104910000F46FBF779FE82A3D3E90023FBF7BEFC29
:1049200032463B46FBF770FE7FA3D3E90023FBF73B
:10493000B5FC32463B46FBF767FE7DA3D3E9002377
:10494000FBF7ACFC32463B46FBF75EFE7AA3D3E9AD
:104950000023FBF7A3FC32463B46FBF755FE78A34A
:10496000D3E90023FBF79AFC3246804689463B4652
:1049700030463946FBF748FE02460B46404649465C
:10498000FBF742FE524606460F465B4651EC180BBB
:10499000FBF784FC53EC1B2BFBF736FE32463B4601
:1049A000FBF77CFC524641EC1A0B5B4650465946DD
:1049B000FBF72AFE714B002280468946FBF76EFC0E
:1049C00053EC1A2BFBF76AFC50460F465946DDE9BB
:1049D00002AB3B465246FBF717FE684B41EC190B06
:1049E000002250463946FBF757FC42464B46FBF740
:1049F00053FC02460B4651EC1A0BFBF74DFC53ECF3
:104A0000182BFBF701FE52463B4606460F4651EC7B
:104A10001B0BFBF7F9FD02460B4630463946FBF708
:104A20003DFC8046894642464B4651EC190BFBF74C
:104A300035FC45A3D3E9002350460F46FBF7E4FDC0
:104A400053EC192B41EC190B50463946FBF724FC6B
:104A500002460B4640464946FBF71EFC3CA3D3E901
:104A60000023FBF7D1FD02460B4616465046394659
:104A70001F4639A3D3E90023FBF7C6FD02460B46C8
:104A800030463946FBF70AFC53EC1D2BFBF706FCBE
:104A9000804605988946FBF74DFD424682468B4687
:104AA0004B4651EC190BFBF7F9FB53EC1C2BFBF7B6
:104AB000F5FB52465B46FBF7F1FB52465B46002096
:104AC00006460F46FBF7E8FB53EC1C2BFBF7E4FB19
:104AD00053EC192BFBF7E0FB02460B4640464946D8
:104AE000FBF7DAFB009B049A013B134382468B469B
:104AF00040F0C2819FED1A7BB0EE478AF0EE678AE4
:104B00003EE000BFAFF30080000000000000F03F77
:104B10000000000000000000EF4E454A287ECA3F1A
:104B200065DBC9934A86CD3F01411DA96074D13F21
:104B30004D268F515555D53FFFAB6FDBB66DDB3F33
:104B4000033333333333E33F000000E009C7EE3F64
:104B5000FD033ADC09C7EE3FF5015B14E02F3EBED2
:104B6000000000000000F0BF0000F07F00004043A4
:104B70008E98030079B60B000000F03F000008405B
:104B80000023CDE900450093DDE900892046424637
:104B90004B462946FBF780FB32463B46FBF734FD8C
:104BA00022462B4604460D4650465946FBF72CFD3F
:104BB00002460B4620462946FBF770FB4246044658
:104BC0000D464B4630463946FBF71EFD26462F461E
:104BD00004460D462B46304639462246FBF75EFB1F
:104BE000C74B9942804689468A4640F31F8101F1AE
:104BF0003F4303F5E003034340F03E82AAA3D3E919
:104C0000002330463946FBF749FB02460B46404637
:104C100049469046994622462B46FBF73DFB024605
:104C20000B4640464946FBF77FFF002840F02482B0
:104C3000CAF30A534FF48012A3F2FE3342FA03F38D
:104C40005344B049C3F30A52A2F2FF3241FA02FCC4
:104C5000C3F3130141F48011C2F1140241FA02F2CC
:104C6000002023EA0C01BAF1000F00920B46024625
:104C700002DA00994942009120462946FBF70CFBD5
:104C8000009B1B05029302460B4604460D46304628
:104C90003946FBF703FB89464FF0000884A3D3E9AC
:104CA000002340464946FBF7AFFC22462B4682468E
:104CB0008B4640464946FBF7EFFA02460B46304624
:104CC0003946FBF7E9FA7CA3D3E90023FBF79CFC08
:104CD0007BA3D3E9002304460D4640464946FBF733
:104CE00093FC02460B4620462946FBF7D7FA0646B8
:104CF0000F4632463B4650465946FBF7CFFA5246DE
:104D00005B4604460D46FBF7C7FA02460B463046A3
:104D10003946FBF7C1FA2246804689462B46204693
:104D20002946FBF771FC68A3D3E9002306460F462A
:104D3000FBF76AFC66A3D3E90023FBF7ADFA324622
:104D40003B46FBF761FC64A3D3E90023FBF7A6FA1B
:104D500032463B46FBF758FC61A3D3E90023FBF73F
:104D60009BFA32463B46FBF74FFC5FA3D3E9002397
:104D7000FBF794FA32463B46FBF746FC02460B46ED
:104D800020462946FBF788FA06460F4632463B4640
:104D900020462946FBF738FC02460B46304639468A
:104DA00016461F4600224FF08043FBF775FA024675
:104DB0000B4630463946FBF751FD424606460F4644
:104DC0004B4620462946FBF71FFC42464B46FBF765
:104DD00065FA02460B4630463946FBF75DFA224635
:104DE0002B46FBF759FA02460B4600204649FBF7D3
:104DF00053FA029A0B461344B3F5801FC0F2478161
:104E0000194653EC182BFBF7FFFB41EC100BFFF797
:104E1000E6BBB8F1000FFFF625AC47EC106B07B00E
:104E2000BDEC0C8BBDE8F04F00F074B9DFF8E0C0CA
:104E300021F00043634540F3DD80344B0B440343D2
:104E40000AD122462B46FBF727FA32463B46FBF7B0
:104E500061FE00283FF4ECAE51EC180B0022002359
:104E6000FBF744FE003818BF012007B0BDEC0C8BE7
:104E7000BDE8F04F00F03CBA9FED1D7BB0EE478AD5
:104E8000F0EE678A7CE6BBF1000F9FED1B0BBFF6CF
:104E9000A6AB05F1004300EE104A00EE903AFFF792
:104EA0009EBB00BFAFF30080FE822B654715973C89
:104EB00000000000432EE63FEF39FAFE422EE63FA7
:104EC000396CA80C615C20BED0A4BE726937663E06
:104ED000F16BD2C541BDBB3E2CDE25AF6A56113FFA
:104EE00093BDBE166CC1663F3E5555555555C53FE1
:104EF000000000000000F03F000000000000000083
:104F0000FFFF8F40FFFF0F000000F03F00346F3FB6
:104F1000FFCB9040994575DB7B4B99453FF7BEAB86
:104F200051EC100B784B0022FBF7B6F966A3D3E9DE
:104F3000002306460F46FBF767FB65A3D3E9002372
:104F400082468B4630463946FBF75EFB6F4B41ECA1
:104F5000180B002230463946FBF756FB02460B463B
:104F60005DA1D1E90001FBF797F932463B46FBF71B
:104F70004BFB02460B4600206549FBF78DF9324694
:104F8000804689463B4630463946FBF73DFB0246A4
:104F90000B4640464946FBF737FB51A3D3E90023B4
:104FA000FBF732FB02460B4651EC180BFBF774F98A
:104FB0008046894642464B4650465946FBF76EF9B5
:104FC000002052465B4606460F4683E54E490020C8
:104FD00032463B46FBF742FC41EC100BFFF7FFBAB1
:104FE00032463B4630463946FBF70EFB41EC100B90
:104FF000FFF7F5BA464A934262DCDDE900120291FE
:10500000009149E6BBF1000FFFF64CAB00202CE706
:10501000002B7FF452ABC1F114014AFA01F000FAFF
:1050200001F1514545D00093FFF710BB009B012BC8
:105030007FF4D5AA10EE901A10EE102A01F1004369
:1050400043EC102BFFF7CBBA9FED270BFFF7C7BA46
:105050009FED277BB0EE47CAF0EE67CA9FED267B37
:10506000B0EE47DAF0EE67DA9FED257B4FF480274C
:1050700053EC172BFFF7E4BB51EC180B0022002375
:10508000FBF734FD003818BF0120FFF70CBB41ECE3
:10509000100B009800F058F951EC100BB1E600F03D
:1050A0000100C0F102010091002B3FF4CFAAFFF7ED
:1050B000D9BA00F00100C0F102030093FFF7C6BAAD
:1050C0001B15B7E5AFF30080000000604715F73F00
:1050D00044DF5DF80BAE543E555555555555D53FFB
:1050E000FE822B654715F73F00000000000000001E
:1050F0000000004003B8E23F06D0CF43EBFD4C3E3A
:10510000000000000000F83F0000F03F0000D03F2A
:105110000000E03F2DE9F041634A55EC104BAA43F3
:1051200000F09F80002D10EE10CA2B4654DD29158B
:1051300063D0C3F31303A1F2FF37C90743F480130D
:1051400004D45B0003EBDC734FEA4C0C4FEADC72D7
:10515000002602EB43037F104FEA4C0C4FF0160E73
:1051600034464FF40012A118994202DC5B1A8C18E5
:1051700016445B00BEF1010E03EBDC734FEA5202F2
:105180004FEA4C0CEFD1754620204FF000420AE068
:1051900044D04FEADC71013801EB43034FEA4C0C79
:1051A0004FEA520243D0A34202EB0E01F0DD002988
:1051B00001EB020E0ADBA0461B1B614588BF03F111
:1051C000FF33ACEB010C15444446E2E7BEF1000F9F
:1051D000F1DB04F10108EFE725F00042224338D06B
:1051E000002D4ED129464FEADC22153913464FEAED
:1051F0004C5C002AF7D0D60250D400205B00DD02C0
:10520000044600F10100F9D51A4663460CFA00FC89
:10521000C0F12000C340091B13438AE76145B8D899
:10522000002901EB020ED1DB98460023C9E753EABF
:105230000C0310D168087110F30701F17F5101F5DB
:10524000001148BF40F0004001EB0753024643EC19
:10525000102BBDE8F0816A1C16BF681C013640089F
:10526000E9E710EE102A10EE100A2B462946FBF74C
:10527000CBF922462B46FBF711F841EC100BBDE8A9
:10528000F08110EE102A20462946FBF705F8024669
:105290000B46FBF7E3FA41EC100BDAE763462020FC
:1052A0004FF0FF34B6E700BF0000F07FD0B50646F0
:1052B0000F46144600F0E8F80346394630461C60B5
:1052C000D0BD00BF30B5144683B01D4608B103F110
:1052D0000043CDE90023DDE9002320462946FBF702
:1052E00093F9222203B0BDE83040FFF7DFBF00BFD3
:1052F00008B500224FF08053FFF7E4FF41EC100B9C
:1053000008BD00BF08B500224FF0E043FFF7DAFF09
:1053100041EC100B08BD00BF51EC100B10EE102A31
:1053200021F0004343EC102B704700BF82B08DED9D
:10533000000B019840F0004000F58010C00F02B053
:10534000704700BF0000000038B553EC102BC3F3CA
:105350000A5104469C4689BB10EE101A23F0004CFB
:105360005CEA010129D0194600223D4B3D4D10EE6B
:10537000100AFBF749F9AC4202460B4616DB8C4695
:10538000C1F30A513639214440F2FE70814221DCDA
:10539000002947DC11F1350F34DA4CF250318C42E0
:1053A00018DC002B26A1D1E9000144DB24A3D3E9BA
:1053B0000023FBF729F941EC100B38BD40F2FF70D8
:1053C0008142E0D110EE100A1946FAF767FF41EC6E
:1053D000100B38BD002B1CA1D1E9000107DB1AA37B
:1053E000D3E90023FBF710F941EC100B38BD18A1ED
:1053F000D1E9000114A3D3E90023FBF705F941EC3F
:10540000100BF3E72CF0FF4C2CF4E00C36314CEA97
:105410000153104619460022134BFBF7F5F841ECF7
:10542000100B38BD2CF0FF4C2CF4E00C4CEA01536F
:1054300043EC102B38BD08A1D1E90001B6E700BF4D
:1054400059F3F8C21F6EA5019C7500883CE4377EB5
:105450009C7500883CE437FE59F3F8C21F6EA581A5
:1054600000005043B03CFFFF0000903C044A054957
:105470001368002B08BF0B4618441060184670478D
:105480003801002040010020014B1868704700BF20
:1054900014000020F8B500BFF8BC08BC9E46704759
:0C54A000F8B500BFF8BC08BC9E46704781
:1054AC0057484F414D4920616464723A2025640A83
:1054BC004163633A2025642025642025640A4779DA
:1054CC00726F3A2025642025642025640A4D61679B
:1054DC003A2025642025642025640A507265733AAD
:1054EC002025642054656D703A2025640A00000064
:1054FC000000000000000000010203040607080978
:10550C00232D302B2000686C4C00656667454647A0
:10551C000030313233343536373839414243444523
:10552C004600303132333435363738396162636492
:04553C0065660000A0
:08554000F8B6FF7F0100000036
:04554800D501000881
:04554C00B1010008A1
:1055500040500000010000001000000001000000A9
:105560000024F400180000200000000000000000EB
:10557000000000000000000000000000000000002B
:10558000000000000000000000000000000000001B
:10559000000000000000000000000000000000000B
:1055A00000000000000000000000000000000000FB
:1055B00000000000000000000000000000000000EB
:0855C0000000000000000000E3
:0400000508003B298B
:00000001FF
